:100000000C9473000C9490000C9490000C9490004D
:100010000C9492000C9490000C9490000C9490001E
:100020000C9482010C9490000C9490000C9490001D
:100030000C9490000C9490000C9490000C94900000
:100040000C9490000C9490000C9490000C949000F0
:100050000C94900040023E0246024802FC01FE0160
:10006000000202020402060208020A020C02460210
:100070004602460244024602460246020E021002B0
:10008000140246021A021C021E022002FC01260271
:1000900046022A024602460248022E024602460252
:1000A0003002320236024602460246023A023C0260
:1000B0004602460246024602420246024602120238
:1000C00016021802460246024602220224022802B2
:1000D00046024602460246022C02460246024602FA
:1000E00046023402380211241FBECFE5D4E0DEBF41
:1000F000CDBF10E0A0E6B0E0E6E0FFE002C0059072
:100100000D92A238B107D9F720E0A2E8B0E001C013
:100110001D92AD39B207E1F70E942F030C948107BD
:100120000C9400001F920F920FB60F9211248F9320
:100130009F93AF93BF9385E085BD8091880081FF39
:1001400040C08091880082FF20C0809184009091FF
:100150008500A0918600B0918700892B8A2B8B2B7C
:1001600039F18091840090918500A0918600B09132
:1001700087000197A109B1098093840090938500BD
:10018000A0938600B093870013C080918400909163
:100190008500A0918600B09187000196A11DB11D38
:1001A0008093840090938500A0938600B09387008D
:1001B0008091880080FD05C08091880081608093D7
:1001C0008800BF91AF919F918F910F900FBE0F90BC
:1001D0001F9018958091840090918500A0918600D1
:1001E000B09187000895992314F480E090E0092EDF
:1001F000000CAA0BBB0B8093840090938500A09306
:100200008600B0938700089589B7806489BF809184
:100210008800826080938800089589B78F7B89BFAA
:10022000809188008D7F8093880008958091880058
:100230008695817090E00895109284001092850058
:1002400010928600109287001092880082B5886014
:1002500082BD14BC85E085BD08954091990050E0B1
:1002600014161506B4F42091890080E090E03FEF69
:10027000213029F4FC01E357FF4F308306C02111E0
:1002800004C0FC01E357FF4F1082019684179507C5
:1002900079F710928A00089580919900882389F156
:1002A00020E030E061E070E080918900813089F4E5
:1002B000E0918B00F0918C009081AB01022E02C086
:1002C000440F551F0A94E2F7842F80958923808379
:1002D00010C081110EC0E0918B00F0918C00408124
:1002E000CB01022E02C0880F991F0A94E2F7842BDB
:1002F00080832F5F3F4F8091990090E02817390746
:100300009CF208951F920F920FB60F9211242F9313
:100310003F934F935F936F937F938F939F93AF938D
:10032000BF93EF93FF938091820090918300019699
:100330006091990070E00E9469049093830080931B
:1003400082000E944C01A0919500B0919600E0912E
:100350008200F0918300E357FF4F80818C9380915E
:100360008900813099F44091820050918300E0919E
:100370008B00F0918C00208181E090E002C0880F1A
:10038000991F4A95E2F7822B808316C0811114C011
:100390004091820050918300E0918B00F0918C009D
:1003A000208181E090E002C0880F991F4A95E2F712
:1003B000809590958223808380E69AEE9DBD8CBDCA
:1003C000FF91EF91BF91AF919F918F917F916F912D
:1003D0005F914F913F912F910F900FBE0F901F9003
:1003E000189590E0FC01BD97E934F10508F04EC086
:1003F000E65DFF4F0C947D0486E008958BE508953B
:100400008FE4089586E608958DE608958DE70895B2
:1004100087E008958FE708958FE6089587E70895A8
:100420008FE708958CE7089589E3089588E5089596
:100430008EE5089589E7089581E708958DE308958D
:1004400086E7089584E7089584E008958FE008958D
:100450008EE0089588E308958CE5089583E7089574
:100460008DE6089581E3089588E708958EE3089561
:100470008CE1089586E608958BE5089580E8089557
:1004800080E4089588E0089588E4089580E0089560
:100490008FE308959F92AF92BF92CF92DF92EF9237
:1004A000FF920F931F93CF93DF9330919900E32E28
:1004B000F12C1E141F049CF5FC012081222379F1EC
:1004C00000918A00409189004170942E5C01FFEFF9
:1004D000AF1ABF0A6C01C30ED11C10E00150110904
:1004E000081B190B05C0F50121915F012223B9F00A
:1004F000C8018A0D9B1DB7010E946904EC01992077
:1005000029F0822F0E94F101809503C0822F0E9462
:10051000F101C357DF4F8883AC14BD0421F7DF918D
:10052000CF911F910F91FF90EF90DF90CF90BF90F0
:10053000AF909F9008950F931F93CF93DF93CDB704
:10054000DEB729970FB6F894DEBF0FBECDBF9F93DD
:100550008F9386E690E09F938F938E010F5F1F4FDE
:100560001F930F930E949704C8010E944A020F90A4
:100570000F900F900F900F900F9029960FB6F89450
:10058000DEBF0FBECDBFDF91CF911F910F910895B8
:100590008EB581608EBD89B7846089BF80E69AEE92
:1005A0009DBD8CBD0895EF92FF920F931F9399E329
:1005B000899F912D11249695792F770F770F770FBB
:1005C000970F891B80939900617060938900509305
:1005D0009B0040939A0030939600209395001093CF
:1005E000980000939700F0928C00E0928B008FEFC0
:1005F000FA018083809199008823C9F080E090E01F
:1006000061E070E0E0919700F091980040819B01DB
:10061000082E02C0220F331F0A94E2F7242B2083F6
:1006200001962091990030E0821793075CF30E94B5
:100630002D010E94C8021F910F91FF90EF90089525
:1006400093B79B6493BF12BE8CBFBB9A089583B7C8
:10065000806283BF089583B78F7D83BF0895CF9352
:10066000DF93CDB7DEB762970FB6F894DEBF0FBE4B
:10067000CDBF10929C0088E0EFE6F0E0DE0111961D
:1006800001900D928A95E1F78AE0E7E7F0E0DE015C
:10069000199601900D928A95E1F70F2EF5E3EF2E52
:1006A000F12CF02D04E310E022E330E041E350E0D0
:1006B00060E083E00E94D3020E941C017894E091E4
:1006C0006400F0916500808188788083E091620009
:1006D000F0916300808187678083809188008460C7
:1006E0008093880089819A810E94F3000E94EA0029
:1006F0000E949B028F8598890E9420032FEF80E73C
:1007000092E0215080409040E1F700C000000F2EA1
:10071000F3E0FF2EF02DE12CDD24D39405E010E072
:1007200080919C0081111CC00E941601892B81F0D0
:100730008091880080FF14C00E942D010E94EA0071
:100740000E949B02809188008E7F8093880008C061
:100750000E942D010E94EA000E949B02D0929C0000
:100760000E94EA00892B41F40E941601892B21F096
:100770000E942B03D0929C00E0916000F0916100F8
:10078000808180FD1DC00E941601892B29F00E94E6
:100790000D010E942B0304C00E9404010E94270344
:1007A00010929C008FE39CE90197F1F700C00000D4
:1007B000E0916000F0916100808180FFFDCFB0CFBB
:1007C000808181FD2AC08E2D90E001968370907803
:1007D000992324F401978C6F9F6F0196E82EFC01FA
:1007E000FF27EE0FFF1F81E090E08C0F9D1FE80FA9
:1007F000F91F808191810E94F30010929C008FE389
:100800009CE90197F1F700C00000E0916000F091D1
:100810006100808181FFFDCF83CF808182FD1BC07D
:100820000E94EA000A968C3291402CF40E94EA0061
:100830000A960E94F30010929C008FE39CE90197B6
:10084000F1F700C00000E0916000F091610080814C
:1008500082FFFDCF65CF808186FD15C00E94EA0032
:100860000A970E94F30010929C008FE39CE9019785
:10087000F1F700C00000E0916000F091610080811C
:1008800086FFFDCF4DCF808184FD4ACF8F2D90E034
:100890000196B8010E946904F82EFC01FF27EE0FB3
:1008A000FF1F81E090E08C0F9D1FE80FF91F8085EE
:1008B0008CBF10929C008FE39CE90197F1F700C078
:1008C0000000E0916000F0916100808184FFFDCF25
:1008D00027CF97FB072E16F4009407D077FD09D099
:1008E0000E94830407FC05D03EF4909581959F4FAC
:1008F0000895709561957F4F0895EE0FFF1F059045
:10090000F491E02D0994AA1BBB1B51E107C0AA1F5B
:10091000BB1FA617B70710F0A61BB70B881F991FA0
:100920005A95A9F780959095BC01CD010895AEE048
:10093000B0E0EDE9F4E00C9458070D891E8986E0DB
:100940008C831A8309838FEF9FE79E838D83AE018B
:10095000475E5F4F6F89788DCE0101960E94B90482
:10096000EF81F885E00FF11F10822E96E4E00C94E1
:100970007407ABE0B0E0EFEBF4E00C944A076C01D5
:100980007B018A01FC0117821682838181FFCCC121
:10099000CE0101963C01F6019381F70193FD85910B
:1009A00093FF81917F01882309F4BAC1853239F41C
:1009B00093FD859193FF81917F01853229F4B601E2
:1009C00090E00E94B006E7CF912C212C312CFFE162
:1009D000F315D8F08B3279F038F4803279F0833225
:1009E000A1F4232D20611DC08D3261F0803369F4A4
:1009F000232D216016C0832D8260382EE32DE46004
:100A00003E2E2AC0F32DF8601DC037FC2DC020ED0E
:100A1000280F2A3040F08E32B9F436FC81C1232DE4
:100A20002064322E19C036FE06C08AE0989E200D42
:100A30001124922E11C0EAE02E9E200D1124222EA8
:100A4000F32DF0623F2E08C08C3621F4832D806890
:100A5000382E02C0883641F4F70193FD859193FF4B
:100A600081917F018111B3CF982F9F7D9554933051
:100A700028F40C5F1F4F9FE399830DC0833631F03C
:100A8000833771F0833509F059C021C0F8018081A6
:100A900089830E5F1F4F88248394912C530113C0C8
:100AA0002801F2E04F0E511CF801A080B18036FE03
:100AB00003C0692D70E002C06FEF7FEFC5010E9497
:100AC000A5064C018201F32DFF773F2E16C02801A9
:100AD00022E0420E511CF801A080B18036FE03C016
:100AE000692D70E002C06FEF7FEFC5010E949A068A
:100AF0004C01F32DF0683F2E820133FC1BC0822D88
:100B000090E088169906B0F4B60180E290E00E9469
:100B1000B0062A94F4CFF50137FC859137FE819118
:100B20005F01B60190E00E94B00621102A9421E0F6
:100B3000821A91088114910471F7E8C0843611F08B
:100B4000893641F5F80137FE07C0608171818281E5
:100B500093810C5F1F4F08C060817181072E000CCC
:100B6000880B990B0E5F1F4FF32DFF763F2E97FFDB
:100B700009C090958095709561957F4F8F4F9F4FDD
:100B8000F0683F2E2AE030E0A3010E94EC06882E98
:100B9000861845C0853731F4232D2F7EB22E2AE0EA
:100BA00030E025C0932D997FB92E8F36C1F018F40F
:100BB000883579F0B5C0803719F0883721F0B0C09A
:100BC000E92FE061BE2EB4FE0DC0FB2DF460BF2EF8
:100BD00009C034FE0AC0292F2660B22E06C028E0C4
:100BE00030E005C020E130E002C020E132E0F80151
:100BF000B7FE07C060817181828193810C5F1F4FB6
:100C000006C06081718180E090E00E5F1F4FA301FC
:100C10000E94EC06882E8618FB2DFF773F2E36FEAD
:100C20000DC0232D2E7FA22E891458F434FE0BC044
:100C300032FC09C0832D8E7EA82E05C0B82CA32CB3
:100C400003C0B82C01C0B92CA4FE0FC0FE01E80DF2
:100C5000F11D8081803321F49A2D997EA92E09C03F
:100C6000A2FE06C0B394B39404C08A2D867809F01E
:100C7000B394A3FC11C0A0FE06C0B21488F4280CE3
:100C8000922C9B180EC0B21460F4B60180E290E082
:100C90000E94B006B394F7CFB21418F42B1802C018
:100CA000982C212CA4FE10C0B60180E390E00E9495
:100CB000B006A2FE17C0A1FC03C088E790E002C006
:100CC00088E590E0B6010CC08A2D867859F0A1FE27
:100CD00002C08BE201C080E2A7FC8DE2B60190E089
:100CE0000E94B006891438F4B60180E390E00E94B7
:100CF000B0069A94F7CF8A94F301E80DF11D808134
:100D0000B60190E00E94B0068110F5CF222009F4D0
:100D100042CEB60180E290E00E94B0062A94F6CF5F
:100D2000F6018681978102C08FEF9FEF2B96E2E15B
:100D30000C946607FC010590615070400110D8F7D3
:100D4000809590958E0F9F1F0895FC016150704013
:100D500001900110D8F7809590958E0F9F1F0895F0
:100D60000F931F93CF93DF93FB01238121FD03C0DA
:100D70008FEF9FEF2CC022FF16C046815781248140
:100D800035814217530744F4A081B1819D012F5F43
:100D90003F4F318320838C93268137812F5F3F4FD4
:100DA0003783268314C08B01EC01FB010084F1859D
:100DB000E02D0995892BE1F6D80116968D919C912D
:100DC0001797019617969C938E931697CE01DF91F5
:100DD000CF911F910F910895FA01AA27283051F160
:100DE000203181F1E8946F936E7F6E5F7F4F8F4F5C
:100DF0009F4FAF4FB1E03ED0B4E03CD0670F781FBB
:100E0000891F9A1FA11D680F791F8A1F911DA11D9F
:100E10006A0F711D811D911DA11D20D009F46894D8
:100E20003F912AE0269F11243019305D3193DEF680
:100E3000CF010895462F4770405D4193B3E00FD036
:100E4000C9F7F6CF462F4F70405D4A3318F0495D21
:100E500031FD4052419302D0A9F7EACFB4E0A69504
:100E60009795879577956795BA95C9F70097610526
:100E7000710508959B01AC010A2E0694579547957C
:100E800037952795BA95C9F7620F731F841F951F71
:100E9000A01D08952F923F924F925F926F927F9282
:100EA0008F929F92AF92BF92CF92DF92EF92FF927A
:100EB0000F931F93CF93DF93CDB7DEB7CA1BDB0B26
:100EC0000FB6F894DEBF0FBECDBF09942A883988CB
:100ED00048885F846E847D848C849B84AA84B984D2
:100EE000C884DF80EE80FD800C811B81AA81B981DE
:100EF000CE0FD11D0FB6F894DEBF0FBECDBFED01F2
:060F00000895F894FFCFF4
:100F06003600380037002564000030256400001ED6
:100F1600003C00B4002C014C0073009900BF00E5B2
:020F26000000C9
:00000001FF
