:100000000C9473000C9490000C9490000C9490004D
:100010000C9492000C9490000C9490000C9490001E
:100020000C9482010C9490000C9490000C9490001D
:100030000C9490000C9490000C9490000C94900000
:100040000C9490000C9490000C9490000C949000F0
:100050000C94900040023E0246024802FC01FE0160
:10006000000202020402060208020A020C02460210
:100070004602460244024602460246020E021002B0
:10008000140246021A021C021E022002FC01260271
:1000900046022A024602460248022E024602460252
:1000A0003002320236024602460246023A023C0260
:1000B0004602460246024602420246024602120238
:1000C00016021802460246024602220224022802B2
:1000D00046024602460246022C02460246024602FA
:1000E00046023402380211241FBECFE5D4E0DEBF41
:1000F000CDBF10E0A0E6B0E0E2E2FFE002C0059074
:100100000D92AE37B107D9F720E0AEE7B0E001C0FD
:100110001D92A939B207E1F70E942F030C948F07B3
:100120000C9400001F920F920FB60F9211248F9320
:100130009F93AF93BF9385E085BD8091840081FF3D
:1001400040C08091840082FF20C080918000909107
:100150008100A0918200B0918300892B8A2B8B2B88
:1001600039F18091800090918100A0918200B0913E
:1001700083000197A109B1098093800090938100C9
:10018000A0938200B093830013C08091800090916F
:100190008100A0918200B09183000196A11DB11D44
:1001A0008093800090938100A0938200B09383009D
:1001B0008091840080FD05C08091840081608093DF
:1001C0008400BF91AF919F918F910F900FBE0F90C0
:1001D0001F9018958091800090918100A0918200DD
:1001E000B09183000895992314F480E090E0092EE3
:1001F000000CAA0BBB0B8093800090938100A0930E
:100200008200B0938300089589B7806489BF80918C
:100210008400826080938400089589B78F7B89BFB2
:10022000809184008D7F8093840008958091840064
:100230008695817090E00895109280001092810060
:1002400010928200109283001092840082B5886020
:1002500082BD14BC85E085BD08954091950050E0B5
:1002600014161506B4F42091850080E090E03FEF6D
:10027000213029F4FC01E757FF4F308306C02111DC
:1002800004C0FC01E757FF4F1082019684179507C1
:1002900079F710928600089580919500882389F15E
:1002A00020E030E061E070E080918500813089F4E9
:1002B000E0918700F09188009081AB01022E02C08E
:1002C000440F551F0A94E2F7842F80958923808379
:1002D00010C081110EC0E0918700F091880040812C
:1002E000CB01022E02C0880F991F0A94E2F7842BDB
:1002F00080832F5F3F4F8091950090E0281739074A
:100300009CF208951F920F920FB60F9211242F9313
:100310003F934F935F936F937F938F939F93AF938D
:10032000BF93EF93FF9380917E0090917F000196A1
:100330006091950070E00E94770490937F00809315
:100340007E000E944C01A0919100B0919200E0913A
:100350007E00F0917F00E757FF4F80818C93809162
:100360008500813099F440917E0050917F00E091AA
:100370008700F0918800208181E090E002C0880F22
:10038000991F4A95E2F7822B808316C0811114C011
:1003900040917E0050917F00E0918700F0918800AD
:1003A000208181E090E002C0880F991F4A95E2F712
:1003B000809590958223808380E69AEE9DBD8CBDCA
:1003C000FF91EF91BF91AF919F918F917F916F912D
:1003D0005F914F913F912F910F900FBE0F901F9003
:1003E000189590E0FC01BD97E934F10508F04EC086
:1003F000E65DFF4F0C948B0486E008958BE508952D
:100400008FE4089586E608958DE608958DE70895B2
:1004100087E008958FE708958FE6089587E70895A8
:100420008FE708958CE7089589E3089588E5089596
:100430008EE5089589E7089581E708958DE308958D
:1004400086E7089584E7089584E008958FE008958D
:100450008EE0089588E308958CE5089583E7089574
:100460008DE6089581E3089588E708958EE3089561
:100470008CE1089586E608958BE5089580E8089557
:1004800080E4089588E0089588E4089580E0089560
:100490008FE308959F92AF92BF92CF92DF92EF9237
:1004A000FF920F931F93CF93DF9330919500E32E2C
:1004B000F12C1E141F049CF5FC012081222379F1EC
:1004C00000918600409185004170942E5C01FFEF01
:1004D000AF1ABF0A6C01C30ED11C10E00150110904
:1004E000081B190B05C0F50121915F012223B9F00A
:1004F000C8018A0D9B1DB7010E947704EC01992069
:1005000029F0822F0E94F101809503C0822F0E9462
:10051000F101C757DF4F8883AC14BD0421F7DF9189
:10052000CF911F910F91FF90EF90DF90CF90BF90F0
:10053000AF909F9008950F931F93CF93DF93CDB704
:10054000DEB729970FB6F894DEBF0FBECDBF9F93DD
:100550008F9386E690E09F938F938E010F5F1F4FDE
:100560001F930F930E94A504C8010E944A020F9096
:100570000F900F900F900F900F9029960FB6F89450
:10058000DEBF0FBECDBFDF91CF911F910F910895B8
:100590008EB581608EBD89B7846089BF80E69AEE92
:1005A0009DBD8CBD0895EF92FF920F931F9399E329
:1005B000899F912D11249695792F770F770F770FBB
:1005C000970F891B8093950061706093850050930D
:1005D00097004093960030939200209391001093DF
:1005E000940000939300F0928800E09287008FEFD0
:1005F000FA018083809195008823C9F080E090E023
:1006000061E070E0E0919300F091940040819B01E3
:10061000082E02C0220F331F0A94E2F7242B2083F6
:1006200001962091950030E0821793075CF30E94B9
:100630002D010E94C8021F910F91FF90EF90089525
:1006400093B79B6493BF12BE8CBFBB9A089583B7C8
:10065000806283BF089583B78F7D83BF0895CF9352
:10066000DF93CDB7DEB72E970FB6F894DEBF0FBE7F
:10067000CDBF1092980088E0EFE6F0E0DE01119621
:1006800001900D928A95E1F786E0E7E7F0E0DE0160
:10069000199601900D928A95E1F70F2EF5E3EF2E52
:1006A000F12CF02D04E310E022E330E041E350E0D0
:1006B00060E083E00E94D3020E941C017894E091E4
:1006C0006400F0916500808188788083E091620009
:1006D000F0916300808187678083809184008460CB
:1006E0008093840089819A810E94F3000E94EA002D
:1006F0000E949B028B859C850E9420032FEF80E740
:1007000092E0215080409040E1F700C00000EE24CC
:10071000E394F12CDD24D39403E010E08091980061
:1007200081111CC00E941601892B81F080918400E8
:1007300080FF14C00E942D010E94EA000E949B02CB
:10074000809184008E7F8093840008C00E942D01D8
:100750000E94EA000E949B02D09298000E94EA0048
:10076000892B41F40E941601892B21F00E942B0352
:10077000D0929800E0916000F0916100808180FD4E
:100780001DC00E941601892B29F00E940D010E94B4
:100790002B0304C00E9404010E94270310929800BA
:1007A0008FE39CE90197F1F700C00000E091600041
:1007B000F0916100808180FFFDCF88C0808181FD44
:1007C0002AC08F2D90E0019683709078992324F4AD
:1007D00001978C6F9F6F0196F82EFC01FF27EE0F9B
:1007E000FF1F81E090E08C0F9D1FE80FF91F8081B3
:1007F00091810E94F300109298008FE39CE9019789
:10080000F1F700C00000E0916000F091610080818C
:1008100081FFFDCF5BC0808182FD1BC00E94EA008A
:100820000A968C3291402CF40E94EA000A960E94AB
:10083000F300109298008FE39CE90197F1F700C054
:100840000000E0916000F0916100808182FFFDCFA7
:100850003DC0808186FD15C00E94EA000A970E9473
:10086000F300109298008FE39CE90197F1F700C024
:100870000000E0916000F0916100808186FFFDCF73
:1008800025C0808184FD22C08E2D90E00196B801A4
:100890000E947704E82EFC01FF27EE0FFF1F81E086
:1008A00090E08C0F9D1FE80FF91F80858CBF109280
:1008B00098008FE39CE90197F1F700C00000E091F8
:1008C0006000F0916100808184FFFDCFE0916000C5
:1008D000F0916100808185FF07C00E942D010E9478
:1008E0002703109298001ACF0E942B0317CF97FB73
:1008F000072E16F4009407D077FD09D00E949104CA
:1009000007FC05D03EF4909581959F4F0895709512
:1009100061957F4F0895EE0FFF1F0590F491E02D34
:100920000994AA1BBB1B51E107C0AA1FBB1FA61736
:10093000B70710F0A61BB70B881F991F5A95A9F788
:1009400080959095BC01CD010895AEE0B0E0EBEA52
:10095000F4E00C9466070D891E8986E08C831A8367
:1009600009838FEF9FE79E838D83AE01475E5F4FC4
:100970006F89788DCE0101960E94C704EF81F885BA
:10098000E00FF11F10822E96E4E00C948207ABE09A
:10099000B0E0EDECF4E00C9458076C017B018A01A7
:1009A000FC0117821682838181FFCCC1CE010196A2
:1009B0003C01F6019381F70193FD859193FF8191AD
:1009C0007F01882309F4BAC1853239F493FD8591FA
:1009D00093FF81917F01853229F4B60190E00E9456
:1009E000BE06E7CF912C212C312CFFE1F315D8F076
:1009F0008B3279F038F4803279F08332A1F4232DF0
:100A000020611DC08D3261F0803369F4232D216097
:100A100016C0832D8260382EE32DE4603E2E2AC05E
:100A2000F32DF8601DC037FC2DC020ED280F2A30B3
:100A300040F08E32B9F436FC81C1232D2064322E71
:100A400019C036FE06C08AE0989E200D1124922E11
:100A500011C0EAE02E9E200D1124222EF32DF0620B
:100A60003F2E08C08C3621F4832D8068382E02C0BA
:100A7000883641F4F70193FD859193FF81917F01C1
:100A80008111B3CF982F9F7D9554933028F40C5F3C
:100A90001F4F9FE399830DC0833631F0833771F088
:100AA000833509F059C021C0F801808189830E5F28
:100AB0001F4F88248394912C530113C02801F2E026
:100AC0004F0E511CF801A080B18036FE03C0692D85
:100AD00070E002C06FEF7FEFC5010E94B3064C01CA
:100AE0008201F32DFF773F2E16C0280122E0420E2F
:100AF000511CF801A080B18036FE03C0692D70E062
:100B000002C06FEF7FEFC5010E94A8064C01F32DD4
:100B1000F0683F2E820133FC1BC0822D90E08816C6
:100B20009906B0F4B60180E290E00E94BE062A94D5
:100B3000F4CFF50137FC859137FE81915F01B60155
:100B400090E00E94BE0621102A9421E0821A9108AA
:100B50008114910471F7E8C0843611F0893641F5AB
:100B6000F80137FE07C060817181828193810C5F3B
:100B70001F4F08C060817181072E000C880B990BF4
:100B80000E5F1F4FF32DFF763F2E97FF09C0909504
:100B90008095709561957F4F8F4F9F4FF0683F2EE6
:100BA0002AE030E0A3010E94FA06882E861845C08C
:100BB000853731F4232D2F7EB22E2AE030E025C078
:100BC000932D997FB92E8F36C1F018F4883579F0BE
:100BD000B5C0803719F0883721F0B0C0E92FE06147
:100BE000BE2EB4FE0DC0FB2DF460BF2E09C034FE36
:100BF0000AC0292F2660B22E06C028E030E005C0CA
:100C000020E130E002C020E132E0F801B7FE07C089
:100C100060817181828193810C5F1F4F06C060816A
:100C2000718180E090E00E5F1F4FA3010E94FA06E1
:100C3000882E8618FB2DFF773F2E36FE0DC0232D04
:100C40002E7FA22E891458F434FE0BC032FC09C04A
:100C5000832D8E7EA82E05C0B82CA32C03C0B82CE3
:100C600001C0B92CA4FE0FC0FE01E80DF11D80816A
:100C7000803321F49A2D997EA92E09C0A2FE06C0C8
:100C8000B394B39404C08A2D867809F0B394A3FC7E
:100C900011C0A0FE06C0B21488F4280C922C9B1838
:100CA0000EC0B21460F4B60180E290E00E94BE066D
:100CB000B394F7CFB21418F42B1802C0982C212C3F
:100CC000A4FE10C0B60180E390E00E94BE06A2FE22
:100CD00017C0A1FC03C088E790E002C088E590E05F
:100CE000B6010CC08A2D867859F0A1FE02C08BE2B5
:100CF00001C080E2A7FC8DE2B60190E00E94BE0632
:100D0000891438F4B60180E390E00E94BE069A94FC
:100D1000F7CF8A94F301E80DF11D8081B60190E0D0
:100D20000E94BE068110F5CF222009F442CEB60102
:100D300080E290E00E94BE062A94F6CFF6018681FA
:100D4000978102C08FEF9FEF2B96E2E10C9474071E
:100D5000FC010590615070400110D8F78095909586
:100D60008E0F9F1F0895FC0161507040019001108B
:100D7000D8F7809590958E0F9F1F08950F931F931E
:100D8000CF93DF93FB01238121FD03C08FEF9FEF02
:100D90002CC022FF16C0468157812481358142171D
:100DA000530744F4A081B1819D012F5F3F4F3183F0
:100DB00020838C93268137812F5F3F4F3783268393
:100DC00014C08B01EC01FB010084F185E02D099535
:100DD000892BE1F6D80116968D919C911797019673
:100DE00017969C938E931697CE01DF91CF911F910A
:100DF0000F910895FA01AA27283051F1203181F18D
:100E0000E8946F936E7F6E5F7F4F8F4F9F4FAF4F12
:100E1000B1E03ED0B4E03CD0670F781F891F9A1F25
:100E2000A11D680F791F8A1F911DA11D6A0F711DD9
:100E3000811D911DA11D20D009F468943F912AE0E5
:100E4000269F11243019305D3193DEF6CF010895CD
:100E5000462F4770405D4193B3E00FD0C9F7F6CFFE
:100E6000462F4F70405D4A3318F0495D31FD4052C6
:100E7000419302D0A9F7EACFB4E0A695979587955C
:100E800077956795BA95C9F700976105710508953B
:100E90009B01AC010A2E06945795479537952795E7
:100EA000BA95C9F7620F731F841F951FA01D08957F
:100EB0002F923F924F925F926F927F928F929F926A
:100EC000AF92BF92CF92DF92EF92FF920F931F9358
:100ED000CF93DF93CDB7DEB7CA1BDB0B0FB6F89409
:100EE000DEBF0FBECDBF09942A88398848885F8449
:100EF0006E847D848C849B84AA84B984C884DF80BA
:100F0000EE80FD800C811B81AA81B981CE0FD11D9D
:100F10000FB6F894DEBF0FBECDBFED010895F89473
:020F2000FFCF01
:100F22003600380037002564000030256400001EBA
:0E0F3200003C00B4002C014C009900E60000C9
:00000001FF
